{
  "contractName": "JccMoacAlarm",
  "abi": [
    {
      "constant": false,
      "inputs": [],
      "name": "renounceOwnership",
      "outputs": [],
      "payable": false,
      "stateMutability": "nonpayable",
      "type": "function"
    },
    {
      "constant": true,
      "inputs": [],
      "name": "owner",
      "outputs": [
        {
          "name": "",
          "type": "address"
        }
      ],
      "payable": false,
      "stateMutability": "view",
      "type": "function"
    },
    {
      "constant": false,
      "inputs": [
        {
          "name": "newAdmin",
          "type": "address"
        }
      ],
      "name": "transferAdministrator",
      "outputs": [],
      "payable": false,
      "stateMutability": "nonpayable",
      "type": "function"
    },
    {
      "constant": false,
      "inputs": [
        {
          "name": "newOwner",
          "type": "address"
        }
      ],
      "name": "transferOwnership",
      "outputs": [],
      "payable": false,
      "stateMutability": "nonpayable",
      "type": "function"
    },
    {
      "constant": true,
      "inputs": [],
      "name": "admin",
      "outputs": [
        {
          "name": "",
          "type": "address"
        }
      ],
      "payable": false,
      "stateMutability": "view",
      "type": "function"
    },
    {
      "inputs": [],
      "payable": false,
      "stateMutability": "nonpayable",
      "type": "constructor"
    },
    {
      "anonymous": false,
      "inputs": [
        {
          "indexed": true,
          "name": "_from",
          "type": "address"
        },
        {
          "indexed": true,
          "name": "_contractAddr",
          "type": "address"
        },
        {
          "indexed": true,
          "name": "_amount",
          "type": "uint256"
        }
      ],
      "name": "Deposit",
      "type": "event"
    },
    {
      "anonymous": false,
      "inputs": [
        {
          "indexed": true,
          "name": "_to",
          "type": "address"
        },
        {
          "indexed": true,
          "name": "_amount",
          "type": "uint256"
        }
      ],
      "name": "Withdraw",
      "type": "event"
    },
    {
      "anonymous": false,
      "inputs": [
        {
          "indexed": true,
          "name": "_contractAddr",
          "type": "address"
        },
        {
          "indexed": true,
          "name": "_origin",
          "type": "uint256"
        },
        {
          "indexed": true,
          "name": "_cost",
          "type": "uint256"
        }
      ],
      "name": "Balance",
      "type": "event"
    },
    {
      "anonymous": false,
      "inputs": [
        {
          "indexed": true,
          "name": "contractAddr",
          "type": "address"
        },
        {
          "indexed": true,
          "name": "_type",
          "type": "uint256"
        },
        {
          "indexed": true,
          "name": "_begin",
          "type": "uint256"
        },
        {
          "indexed": false,
          "name": "_peroid",
          "type": "uint256"
        }
      ],
      "name": "CreateAlarm",
      "type": "event"
    },
    {
      "anonymous": false,
      "inputs": [
        {
          "indexed": true,
          "name": "contractAddr",
          "type": "address"
        }
      ],
      "name": "RemoveAlarm",
      "type": "event"
    },
    {
      "anonymous": false,
      "inputs": [
        {
          "indexed": true,
          "name": "contractAddr",
          "type": "address"
        },
        {
          "indexed": true,
          "name": "time",
          "type": "uint256"
        }
      ],
      "name": "Alarm",
      "type": "event"
    },
    {
      "anonymous": false,
      "inputs": [
        {
          "indexed": true,
          "name": "previousOwner",
          "type": "address"
        },
        {
          "indexed": true,
          "name": "newOwner",
          "type": "address"
        }
      ],
      "name": "OwnershipTransferred",
      "type": "event"
    },
    {
      "anonymous": false,
      "inputs": [
        {
          "indexed": true,
          "name": "previousAdmin",
          "type": "address"
        },
        {
          "indexed": true,
          "name": "newAdmin",
          "type": "address"
        }
      ],
      "name": "AdministratorTransferred",
      "type": "event"
    },
    {
      "constant": false,
      "inputs": [
        {
          "name": "_addr",
          "type": "address"
        }
      ],
      "name": "deposit",
      "outputs": [
        {
          "name": "",
          "type": "uint256"
        }
      ],
      "payable": true,
      "stateMutability": "payable",
      "type": "function"
    },
    {
      "constant": false,
      "inputs": [
        {
          "name": "_amount",
          "type": "uint256"
        }
      ],
      "name": "withdraw",
      "outputs": [],
      "payable": true,
      "stateMutability": "payable",
      "type": "function"
    },
    {
      "constant": true,
      "inputs": [
        {
          "name": "_addr",
          "type": "address"
        }
      ],
      "name": "balance",
      "outputs": [
        {
          "name": "",
          "type": "uint256"
        }
      ],
      "payable": false,
      "stateMutability": "view",
      "type": "function"
    },
    {
      "constant": false,
      "inputs": [
        {
          "name": "_addr",
          "type": "address"
        }
      ],
      "name": "addContract",
      "outputs": [
        {
          "name": "",
          "type": "bool"
        }
      ],
      "payable": false,
      "stateMutability": "nonpayable",
      "type": "function"
    },
    {
      "constant": false,
      "inputs": [
        {
          "name": "_addr",
          "type": "address"
        }
      ],
      "name": "removeContract",
      "outputs": [
        {
          "name": "",
          "type": "bool"
        }
      ],
      "payable": false,
      "stateMutability": "nonpayable",
      "type": "function"
    },
    {
      "constant": false,
      "inputs": [
        {
          "name": "_addr",
          "type": "address"
        },
        {
          "name": "_type",
          "type": "uint256"
        },
        {
          "name": "_begin",
          "type": "uint256"
        },
        {
          "name": "_peroid",
          "type": "uint256"
        }
      ],
      "name": "createAlarm",
      "outputs": [
        {
          "name": "",
          "type": "bool"
        }
      ],
      "payable": false,
      "stateMutability": "nonpayable",
      "type": "function"
    },
    {
      "constant": false,
      "inputs": [
        {
          "name": "_addr",
          "type": "address"
        }
      ],
      "name": "removeAlarm",
      "outputs": [
        {
          "name": "",
          "type": "bool"
        }
      ],
      "payable": false,
      "stateMutability": "nonpayable",
      "type": "function"
    },
    {
      "constant": true,
      "inputs": [],
      "name": "getAlarmCount",
      "outputs": [
        {
          "name": "",
          "type": "uint256"
        }
      ],
      "payable": false,
      "stateMutability": "view",
      "type": "function"
    },
    {
      "constant": true,
      "inputs": [
        {
          "name": "from",
          "type": "uint256"
        },
        {
          "name": "_count",
          "type": "uint256"
        }
      ],
      "name": "getAlarmList",
      "outputs": [
        {
          "components": [
            {
              "name": "contractAddr",
              "type": "address"
            },
            {
              "name": "creatorAddr",
              "type": "address"
            },
            {
              "name": "idx",
              "type": "uint256"
            },
            {
              "name": "alarmType",
              "type": "uint256"
            },
            {
              "name": "begin",
              "type": "uint256"
            },
            {
              "name": "peroid",
              "type": "uint256"
            }
          ],
          "name": "",
          "type": "tuple[]"
        }
      ],
      "payable": false,
      "stateMutability": "view",
      "type": "function"
    },
    {
      "constant": false,
      "inputs": [
        {
          "name": "_addr",
          "type": "address"
        }
      ],
      "name": "execute",
      "outputs": [],
      "payable": false,
      "stateMutability": "nonpayable",
      "type": "function"
    }
  ],
  "bytecode": "0x608060405234801561001057600080fd5b506000805433600160a060020a0319918216811780845560018054909316909117909155604051600160a060020a0390911691907f8be0079c531659141344cd1fd0a4f28419497f9722a3daafe3b4186f6b6457e0908290a3600154604051600160a060020a03909116906000907f399b55200f7f639a63d76efe3dcfa9156ce367058d6b673041b84a628885f5a7908290a3611ec6806100b26000396000f3006080604052600436106100c15763ffffffff60e060020a6000350416632e1a7d4d81146100c65780634b64e492146100db5780635f539d69146100fb5780636edce96d14610131578063715018a6146101515780638da5cb5b146101665780639bdccb0714610188578063a386b372146101a8578063b311f86c146101ca578063c375c2ef146101f7578063c648a3a214610217578063e3d670d714610237578063f2fde38b14610257578063f340fa0114610277578063f851a4401461028a575b600080fd5b6100d96100d43660046118d8565b61029f565b005b3480156100e757600080fd5b506100d96100f6366004611833565b61034a565b34801561010757600080fd5b5061011b610116366004611833565b6104fa565b6040516101289190611d75565b60405180910390f35b34801561013d57600080fd5b5061011b61014c366004611877565b610556565b34801561015d57600080fd5b506100d961060e565b34801561017257600080fd5b5061017b610685565b6040516101289190611d56565b34801561019457600080fd5b5061011b6101a3366004611833565b610695565b3480156101b457600080fd5b506101bd6108a7565b6040516101289190611e63565b3480156101d657600080fd5b506101ea6101e53660046118f6565b6108b8565b6040516101289190611d64565b34801561020357600080fd5b5061011b610212366004611833565b6108d3565b34801561022357600080fd5b506100d9610232366004611833565b610929565b34801561024357600080fd5b506101bd610252366004611833565b6109f4565b34801561026357600080fd5b506100d9610272366004611833565b610a07565b6101bd610285366004611833565b610aba565b34801561029657600080fd5b5061017b610b06565b600054600160a060020a03163314806102c25750600154600160a060020a031633145b15156102ec5760405160e560020a62461bcd0281526004016102e390611d93565b60405180910390fd5b604051819033907f884edad9ce6fa2440d8a54cc123490eb96d2768479d49ff9c7366125a942436490600090a3604051339082156108fc029083906000818181858888f19350505050158015610346573d6000803e3d6000fd5b5050565b600061035461167d565b6000805481908190600160a060020a031633148061037c5750600154600160a060020a031633145b151561039d5760405160e560020a62461bcd0281526004016102e390611d93565b5a94506103b160028763ffffffff610b1516565b93506103de8460a001516103d2866080015142610bdb90919063ffffffff16565b9063ffffffff610bed16565b92508360600151600014806103f35750603c83105b15610453578360000151600160a060020a031663514e22776040518163ffffffff1660e060020a028152600401600060405180830381600087803b15801561043a57600080fd5b505af115801561044e573d6000803e3d6000fd5b505050505b606084015115156104745783516104729060029063ffffffff610c2416565b505b5a91506104973a61048b878563ffffffff610bdb16565b9063ffffffff610d4f16565b9050806104ab60068863ffffffff610d8516565b604051600160a060020a038916907f0d4687f69abafcbd8cc1b90346f8eef611fc59139163a462f684d869f390586e90600090a46104f16006878363ffffffff610de016565b50505050505050565b60008054600160a060020a031633148061051e5750600154600160a060020a031633145b151561053f5760405160e560020a62461bcd0281526004016102e390611d93565b61055060048363ffffffff610f5716565b92915050565b600061056960043363ffffffff610fcc16565b151561058a5760405160e560020a62461bcd0281526004016102e390611e53565b61059f6002863387878763ffffffff61102916565b15156105c05760405160e560020a62461bcd0281526004016102e390611e13565b828486600160a060020a03167fda2c27be4582fbfb8bdccd93bfcc7f0eaabdf9fb8545e9405e5655293c401664856040516105fb9190611e63565b60405180910390a4506001949350505050565b600054600160a060020a0316331461063b5760405160e560020a62461bcd0281526004016102e390611db3565b60008054604051600160a060020a03909116907f8be0079c531659141344cd1fd0a4f28419497f9722a3daafe3b4186f6b6457e0908390a360008054600160a060020a0319169055565b600054600160a060020a03165b90565b600061069f61167d565b6106b060043363ffffffff610fcc16565b80610741575030600160a060020a031663f851a4406040518163ffffffff1660e060020a028152600401602060405180830381600087803b1580156106f457600080fd5b505af1158015610708573d6000803e3d6000fd5b505050506040513d601f19601f8201168201806040525061072c9190810190611859565b600160a060020a031633600160a060020a0316145b15156107625760405160e560020a62461bcd0281526004016102e390611e53565b61077360028463ffffffff610b1516565b6020810151909150600160a060020a0316331480610817575030600160a060020a031663f851a4406040518163ffffffff1660e060020a028152600401602060405180830381600087803b1580156107ca57600080fd5b505af11580156107de573d6000803e3d6000fd5b505050506040513d601f19601f820116820180604052506108029190810190611859565b600160a060020a031633600160a060020a0316145b15156108385760405160e560020a62461bcd0281526004016102e390611e03565b61084960028463ffffffff610c2416565b151561086a5760405160e560020a62461bcd0281526004016102e390611e23565b604051600160a060020a038416907fb87ec37b24560364a9c069bdc5b70657b8a36c552bb05329da623f0c06d1e7f590600090a250600192915050565b60006108b36002611107565b905090565b60606108cc6002848463ffffffff61110e16565b9392505050565b60008054600160a060020a03163314806108f75750600154600160a060020a031633145b15156109185760405160e560020a62461bcd0281526004016102e390611d93565b61055060048363ffffffff61123e16565b600054600160a060020a031633148061094c5750600154600160a060020a031633145b151561096d5760405160e560020a62461bcd0281526004016102e390611d93565b600160a060020a03811615156109985760405160e560020a62461bcd0281526004016102e390611da3565b600154604051600160a060020a038084169216907f399b55200f7f639a63d76efe3dcfa9156ce367058d6b673041b84a628885f5a790600090a360018054600160a060020a031916600160a060020a0392909216919091179055565b600061055060068363ffffffff610d8516565b600054600160a060020a03163314610a345760405160e560020a62461bcd0281526004016102e390611db3565b600160a060020a0381161515610a5f5760405160e560020a62461bcd0281526004016102e390611dd3565b60008054604051600160a060020a03808516939216917f8be0079c531659141344cd1fd0a4f28419497f9722a3daafe3b4186f6b6457e091a360008054600160a060020a031916600160a060020a0392909216919091179055565b6040516000903490600160a060020a0384169033907f5548c837ab068cf56a2c2479df0882a4922fd203edb7517321831d95078c5f62908590a46105506006833463ffffffff61131816565b600154600160a060020a031690565b610b1d61167d565b610b2783836113e7565b1515610b485760405160e560020a62461bcd0281526004016102e390611d83565b600160a060020a0382166000908152602084905260409020546001840180549091908110610b7257fe5b60009182526020918290206040805160c08101825260069093029091018054600160a060020a03908116845260018201541693830193909352600283015490820152600382015460608201526004820154608082015260059091015460a0820152905092915050565b600082821115610be757fe5b50900390565b6000811515610c115760405160e560020a62461bcd0281526004016102e390611e43565b8183811515610c1c57fe5b069392505050565b6000806000610c3385856113e7565b1515610c425760009250610d47565b600160a060020a0384166000908152602086905260409020546001808701805492945091610c759163ffffffff610bdb16565b81548110610c7f57fe5b90600052602060002090600602019050808560010183815481101515610ca157fe5b6000918252602080832084546006909302018054600160a060020a0319908116600160a060020a039485161782556001808701548184018054909316908616179091556002808701549083015560038087015490830155600480870154908301556005958601549590910194909455845490911682528790526040902083905585810154610d349163ffffffff610bdb16565b610d4160018701826116c6565b50600192505b505092915050565b600080831515610d625760009150610d7e565b50828202828482811515610d7257fe5b0414610d7a57fe5b8091505b5092915050565b6000610d918383611449565b610d9c5760006108cc565b600160a060020a0382166000908152602084905260409020546001840180549091908110610dc657fe5b906000526020600020906003020160020154905092915050565b6000610dec8484611449565b1515610e0d5760405160e560020a62461bcd0281526004016102e390611de3565b600160a060020a038316600090815260208590526040902054600185018054610e5b928592918110610e3b57fe5b906000526020600020906003020160020154610bdb90919063ffffffff16565b600160a060020a0384166000908152602086905260409020546001860180549091908110610e8557fe5b6000918252602080832060026003909302019190910192909255600160a060020a03851681529085905260409020546001850180549091908110610ec557fe5b90600052602060002090600302016002015460001415610f1257610ee984846114ab565b1515610f0a5760405160e560020a62461bcd0281526004016102e390611dc3565b5060006108cc565b600160a060020a0383166000908152602085905260409020546001850180549091908110610f3c57fe5b90600052602060002090600302016002015490509392505050565b6000610f638383610fcc565b15610f7057506000610550565b6001838101805480830180835560009283526020909220018054600160a060020a031916600160a060020a038616179055610faa91610bdb565b600160a060020a03831660009081526020859052604090205550600192915050565b60018201546000901515610fe257506000610550565b600160a060020a038216600081815260208590526040902054600185018054909190811061100c57fe5b600091825260209091200154600160a060020a0316149392505050565b600061103361167d565b61103d88886113e7565b1561104b57600091506110fc565b50506040805160c081018252600160a060020a0380881680835287821660208085019182526001808d018054878901818152606089018d815260808a018d815260a08b018d8152848701865560009586528786208c516006909602018054958c16600160a060020a03199687161781559851898801805491909c169516949094179099559051600287018190559051600387015596516004860155516005909401939093559282528b905293909320555b509695505050505050565b6001015490565b6060600081818085116111365760405160e560020a62461bcd0281526004016102e390611df3565b8460405190808252806020026020018201604052801561117057816020015b61115d61167d565b8152602001906001900390816111555790505b5091508590505b6001870154811015611234578483141561119057611234565b600187018054829081106111a057fe5b60009182526020918290206040805160c08101825260069093029091018054600160a060020a03908116845260018201541693830193909352600283015490820152600382015460608201526004820154608082015260059091015460a0820152825183908590811061120f57fe5b6020908102909101015261122a83600163ffffffff6115e816565b9250600101611177565b5095945050505050565b600080600061124d8585610fcc565b151561125c5760009250610d47565b600160a060020a038416600090815260208690526040902054600180870180549294509161128f9163ffffffff610bdb16565b8154811061129957fe5b600091825260209091200154600186018054600160a060020a0390921692508291849081106112c457fe5b60009182526020808320919091018054600160a060020a031916600160a060020a039485161790559183168152908690526040902082905560018581015461130b91610bdb565b610d4160018701826116f7565b60006113248484611449565b156113bb57600160a060020a03831660009081526020859052604090205460018501805461137792859291811061135757fe5b9060005260206000209060030201600201546115e890919063ffffffff16565b600160a060020a03841660009081526020869052604090205460018601805490919081106113a157fe5b906000526020600020906003020160020181905550610f12565b6113c68484846115f7565b1515610f125760405160e560020a62461bcd0281526004016102e390611e33565b600182015460009015156113fd57506000610550565b600160a060020a038216600081815260208590526040902054600185018054909190811061142757fe5b6000918252602090912060069091020154600160a060020a0316149392505050565b6001820154600090151561145f57506000610550565b600160a060020a038216600081815260208590526040902054600185018054909190811061148957fe5b6000918252602090912060039091020154600160a060020a0316149392505050565b60008060006114ba8585611449565b15156114c95760009250610d47565b600160a060020a03841660009081526020869052604081205460018701805490919081106114f357fe5b90600052602060002090600302016002015411156115145760009250610d47565b600160a060020a03841660009081526020869052604090205460018087018054929450916115479163ffffffff610bdb16565b8154811061155157fe5b9060005260206000209060030201905080856001018381548110151561157357fe5b6000918252602080832084546003909302018054600160a060020a031916600160a060020a039384161781556001808601548183015560029586015495909101949094558454909116825287905260409020839055858101546115db9163ffffffff610bdb16565b610d41600187018261171b565b600082820183811015610d7a57fe5b6000611601611747565b505060408051606081018252600160a060020a0393841680825260018681018054602080860182815286880198895282850184556000938452818420965160039093029096018054600160a060020a03191692909916919091178855935187830181905595516002909701969096559085529490529091205590565b60c0604051908101604052806000600160a060020a031681526020016000600160a060020a03168152602001600081526020016000815260200160008152602001600081525090565b8154818355818111156116f2576006028160060283600052602060002091820191016116f29190611772565b505050565b8154818355818111156116f2576000838152602090206116f29181019083016117c3565b8154818355818111156116f2576003028160030283600052602060002091820191016116f291906117dd565b6060604051908101604052806000600160a060020a0316815260200160008152602001600081525090565b61069291905b808211156117bf578054600160a060020a03199081168255600182018054909116905560006002820181905560038201819055600482018190556005820155600601611778565b5090565b61069291905b808211156117bf57600081556001016117c9565b61069291905b808211156117bf578054600160a060020a031916815560006001820181905560028201556003016117e3565b60006108cc8235611e7b565b60006108cc8251611e7b565b60006108cc8235610692565b60006020828403121561184557600080fd5b6000611851848461180f565b949350505050565b60006020828403121561186b57600080fd5b6000611851848461181b565b6000806000806080858703121561188d57600080fd5b6000611899878761180f565b94505060206118aa87828801611827565b93505060406118bb87828801611827565b92505060606118cc87828801611827565b91505092959194509250565b6000602082840312156118ea57600080fd5b60006118518484611827565b6000806040838503121561190957600080fd5b60006119158585611827565b925050602061192685828601611827565b9150509250929050565b61193981611e7b565b82525050565b600061194a82611e77565b80845260208401935061195c83611e71565b60005b8281101561198c57611972868351611cd7565b61197b82611e71565b60c09690960195915060010161195f565b5093949350505050565b61193981611e87565b601081527f616c61726d206d75737420657869737400000000000000000000000000000000602082015260400190565b602b81527f6f6e6c79206f776e6572206f722061646d696e6973747261746f722063616e2060208201527f6d6f646966792074686973000000000000000000000000000000000000000000604082015260600190565b602e81527f43616e206e6f74207472616e736665722061646d696e6973747261746f72207460208201527f6f207a65726f2061646472657373000000000000000000000000000000000000604082015260600190565b601a81527f6f6e6c79206f776e65722063616e206d6f646966792074686973000000000000602082015260400190565b601081527f72656d6f76652064617461206661696c00000000000000000000000000000000602082015260400190565b602681527f43616e206e6f74207472616e73666572206f776e657220746f207a65726f206160208201527f6464726573730000000000000000000000000000000000000000000000000000604082015260600190565b601c81527f63616e206e6f7420737562206e6f20657869737420656c656d656e7400000000602082015260400190565b60208082527f72657475726e206e756d626572206d75737420626967676572207468616e20309082015260400190565b602c81527f72656d6f766520616c61726d2063616c6c6572206d757374206265206372656160208201527f746f72206f722061646d696e0000000000000000000000000000000000000000604082015260600190565b601781527f696e7365727420616c61726d207375636365737366756c000000000000000000602082015260400190565b601781527f72656d6f766520616c61726d207375636365737366756c000000000000000000602082015260400190565b601081527f696e736572742064617461206661696c00000000000000000000000000000000602082015260400190565b601081527f63616e206e6f74206d6f64207a65726f00000000000000000000000000000000602082015260400190565b601881527f6e6f742061636365707420636f6e74726163742063616c6c0000000000000000602082015260400190565b805160c0830190611ce88482611930565b506020820151611cfb6020850182611930565b506040820151611d0e6040850182611d4d565b506060820151611d216060850182611d4d565b506080820151611d346080850182611d4d565b5060a0820151611d4760a0850182611d4d565b50505050565b61193981610692565b602081016105508284611930565b602080825281016108cc818461193f565b602081016105508284611996565b602080825281016105508161199f565b60208082528101610550816119cf565b6020808252810161055081611a25565b6020808252810161055081611a7b565b6020808252810161055081611aab565b6020808252810161055081611adb565b6020808252810161055081611b31565b6020808252810161055081611b61565b6020808252810161055081611b91565b6020808252810161055081611be7565b6020808252810161055081611c17565b6020808252810161055081611c47565b6020808252810161055081611c77565b6020808252810161055081611ca7565b602081016105508284611d4d565b60200190565b5190565b600160a060020a031690565b1515905600a265627a7a72305820c7e903ea946a2d05bc74f44fea022579d10a8ccce74237f7351d505a4f68ffd56c6578706572696d656e74616cf50037",
  "source": "pragma solidity 0.4.24;\npragma experimental ABIEncoderV2;\n\nimport \"jcc-solidity-utils/contracts/math/SafeMath.sol\";\nimport \"jcc-solidity-utils/contracts/owner/Administrative.sol\";\nimport \"jcc-solidity-utils/contracts/utils/AddressUtils.sol\";\nimport \"jcc-solidity-utils/contracts/list/AlarmList.sol\";\nimport \"jcc-solidity-utils/contracts/list/AddressList.sol\";\nimport \"jcc-solidity-utils/contracts/list/BalanceList.sol\";\nimport \"jcc-solidity-utils/contracts/interface/IJccMoacAlarm.sol\";\nimport \"jcc-solidity-utils/contracts/interface/IJccMoacAlarmCallback.sol\";\n\n/**\n\n1. \n2. interface\n */\ncontract JccMoacAlarm is Administrative, IJccMoacAlarm {\n  using SafeMath for uint256;\n  using AddressUtils for address;\n  using AlarmList for AlarmList.alarmMap;\n  using AddressList for AddressList.addressMap;\n  using BalanceList for BalanceList.balanceMap;\n\n  AlarmList.alarmMap _alarms;\n  // \n  AddressList.addressMap _acceptAddress;\n\n  // \n  BalanceList.balanceMap _balances;\n\n  constructor() Administrative() public {\n  }\n\n  event Deposit(address indexed _from, address indexed _contractAddr, uint256 indexed _amount);\n  // \n  function deposit(address _addr) public payable returns (uint256) {\n    emit Deposit(msg.sender, _addr, msg.value);\n    return _balances.add(_addr, msg.value);\n  }\n\n  event Withdraw(address indexed _to, uint256 indexed _amount);\n  // \n  function withdraw(uint256 _amount) public payable onlyPrivileged {\n    emit Withdraw(msg.sender, _amount);\n    msg.sender.transfer(_amount);\n  }\n\n  // \n  function balance(address _addr) public view returns (uint256) {\n    return _balances.balance(_addr);\n  }\n\n  function addContract(address _addr) public onlyPrivileged returns (bool) {\n    return _acceptAddress.insert(_addr);\n  }\n\n  function removeContract(address _addr) public onlyPrivileged returns (bool) {\n    return _acceptAddress.remove(_addr);\n  }\n\n  function createAlarm(address _addr, uint256 _type, uint256 _begin, uint256 _peroid) public returns (bool) {\n    require(_acceptAddress.exist(msg.sender), \"not accept contract call\");\n    require(_alarms.insert(_addr, msg.sender, _type, _begin, _peroid), \"insert alarm successful\");\n\n    emit CreateAlarm(_addr, _type, _begin, _peroid);\n\n    return true;\n  }\n\n  function removeAlarm(address _addr) public returns (bool) {\n    // \n    require(_acceptAddress.exist(msg.sender) || msg.sender == this.admin(), \"not accept contract call\");\n    AlarmList.element memory alarm = _alarms.getByAddr(_addr);\n    require(alarm.creatorAddr == msg.sender || msg.sender == this.admin(), \"remove alarm caller must be creator or admin\");\n\n    require(_alarms.remove(_addr), \"remove alarm successful\");\n\n    emit RemoveAlarm(_addr);\n\n    return true;\n  }\n\n  function getAlarmCount() public view returns (uint256) {\n    return _alarms.count();\n  }\n\n  function getAlarmList(uint256 from, uint256 _count) public view returns (AlarmList.element[] memory) {\n    return _alarms.getList(from, _count);\n  }\n\n  event Balance(address indexed _contractAddr, uint256 indexed _origin, uint256 indexed _cost);\n  function execute(address _addr) public onlyPrivileged {\n    // TODO: \n    uint256 _gasBefore = gasleft();\n    // callback\n    AlarmList.element memory e = _alarms.getByAddr(_addr);\n\n    uint256 gap = block.timestamp.sub(e.begin).mod(e.peroid);\n\n    // \n    if (e.alarmType == 0 || gap < 60 ) {\n      IJccMoacAlarmCallback(e.contractAddr).jccMoacAlarmCallback();\n    }\n\n    // \n    if (e.alarmType == 0) {\n      _alarms.remove(e.contractAddr);\n    }\n\n    uint256 _gasAfter = gasleft();\n    uint256 _cost = (_gasBefore.sub(_gasAfter)).mul(tx.gasprice);\n    emit Balance(_addr, _balances.balance(_addr), _cost);\n    _balances.sub(_addr, _cost);\n    // \n    // \n  }\n}",
  "sourcePath": "/Users/chtian/Documents/01_work/01_develope/jcc/jcc_moac_alarm/contract/contracts/JccMoacAlarm.sol",
  "compiler": {
    "name": "solc",
    "version": "0.4.24+commit.e67f0147.Emscripten.clang"
  },
  "schemaVersion": "3.0.16",
  "updatedAt": "2019-10-21T17:57:49.962Z",
  "devdoc": {
    "methods": {
      "renounceOwnership()": {
        "details": ""
      }
    }
  },
  "userdoc": {
    "methods": {}
  }
}