{
  "contractName": "JccMoacAlarm",
  "abi": [
    {
      "constant": false,
      "inputs": [],
      "name": "renounceOwnership",
      "outputs": [],
      "payable": false,
      "stateMutability": "nonpayable",
      "type": "function"
    },
    {
      "constant": true,
      "inputs": [],
      "name": "owner",
      "outputs": [
        {
          "name": "",
          "type": "address"
        }
      ],
      "payable": false,
      "stateMutability": "view",
      "type": "function"
    },
    {
      "constant": false,
      "inputs": [
        {
          "name": "newAdmin",
          "type": "address"
        }
      ],
      "name": "transferAdministrator",
      "outputs": [],
      "payable": false,
      "stateMutability": "nonpayable",
      "type": "function"
    },
    {
      "constant": false,
      "inputs": [
        {
          "name": "newOwner",
          "type": "address"
        }
      ],
      "name": "transferOwnership",
      "outputs": [],
      "payable": false,
      "stateMutability": "nonpayable",
      "type": "function"
    },
    {
      "constant": true,
      "inputs": [],
      "name": "admin",
      "outputs": [
        {
          "name": "",
          "type": "address"
        }
      ],
      "payable": false,
      "stateMutability": "view",
      "type": "function"
    },
    {
      "inputs": [],
      "payable": false,
      "stateMutability": "nonpayable",
      "type": "constructor"
    },
    {
      "anonymous": false,
      "inputs": [
        {
          "indexed": true,
          "name": "_from",
          "type": "address"
        },
        {
          "indexed": true,
          "name": "_contractAddr",
          "type": "address"
        },
        {
          "indexed": true,
          "name": "_amount",
          "type": "uint256"
        }
      ],
      "name": "Deposit",
      "type": "event"
    },
    {
      "anonymous": false,
      "inputs": [
        {
          "indexed": true,
          "name": "_to",
          "type": "address"
        },
        {
          "indexed": true,
          "name": "_amount",
          "type": "uint256"
        }
      ],
      "name": "Withdraw",
      "type": "event"
    },
    {
      "anonymous": false,
      "inputs": [
        {
          "indexed": true,
          "name": "_contractAddr",
          "type": "address"
        },
        {
          "indexed": true,
          "name": "_origin",
          "type": "uint256"
        },
        {
          "indexed": true,
          "name": "_cost",
          "type": "uint256"
        }
      ],
      "name": "Balance",
      "type": "event"
    },
    {
      "anonymous": false,
      "inputs": [
        {
          "indexed": true,
          "name": "contractAddr",
          "type": "address"
        },
        {
          "indexed": true,
          "name": "_type",
          "type": "uint256"
        },
        {
          "indexed": true,
          "name": "_begin",
          "type": "uint256"
        },
        {
          "indexed": false,
          "name": "_peroid",
          "type": "uint256"
        }
      ],
      "name": "CreateAlarm",
      "type": "event"
    },
    {
      "anonymous": false,
      "inputs": [
        {
          "indexed": true,
          "name": "contractAddr",
          "type": "address"
        }
      ],
      "name": "RemoveAlarm",
      "type": "event"
    },
    {
      "anonymous": false,
      "inputs": [
        {
          "indexed": true,
          "name": "contractAddr",
          "type": "address"
        },
        {
          "indexed": true,
          "name": "time",
          "type": "uint256"
        }
      ],
      "name": "Alarm",
      "type": "event"
    },
    {
      "anonymous": false,
      "inputs": [
        {
          "indexed": true,
          "name": "previousOwner",
          "type": "address"
        },
        {
          "indexed": true,
          "name": "newOwner",
          "type": "address"
        }
      ],
      "name": "OwnershipTransferred",
      "type": "event"
    },
    {
      "anonymous": false,
      "inputs": [
        {
          "indexed": true,
          "name": "previousAdmin",
          "type": "address"
        },
        {
          "indexed": true,
          "name": "newAdmin",
          "type": "address"
        }
      ],
      "name": "AdministratorTransferred",
      "type": "event"
    },
    {
      "constant": false,
      "inputs": [
        {
          "name": "_addr",
          "type": "address"
        }
      ],
      "name": "deposit",
      "outputs": [
        {
          "name": "",
          "type": "uint256"
        }
      ],
      "payable": true,
      "stateMutability": "payable",
      "type": "function"
    },
    {
      "constant": false,
      "inputs": [
        {
          "name": "_amount",
          "type": "uint256"
        }
      ],
      "name": "withdraw",
      "outputs": [],
      "payable": true,
      "stateMutability": "payable",
      "type": "function"
    },
    {
      "constant": true,
      "inputs": [
        {
          "name": "_addr",
          "type": "address"
        }
      ],
      "name": "balance",
      "outputs": [
        {
          "name": "",
          "type": "uint256"
        }
      ],
      "payable": false,
      "stateMutability": "view",
      "type": "function"
    },
    {
      "constant": false,
      "inputs": [
        {
          "name": "_addr",
          "type": "address"
        }
      ],
      "name": "addContract",
      "outputs": [
        {
          "name": "",
          "type": "bool"
        }
      ],
      "payable": false,
      "stateMutability": "nonpayable",
      "type": "function"
    },
    {
      "constant": false,
      "inputs": [
        {
          "name": "_addr",
          "type": "address"
        }
      ],
      "name": "removeContract",
      "outputs": [
        {
          "name": "",
          "type": "bool"
        }
      ],
      "payable": false,
      "stateMutability": "nonpayable",
      "type": "function"
    },
    {
      "constant": false,
      "inputs": [
        {
          "name": "_addr",
          "type": "address"
        },
        {
          "name": "_type",
          "type": "uint256"
        },
        {
          "name": "_begin",
          "type": "uint256"
        },
        {
          "name": "_peroid",
          "type": "uint256"
        }
      ],
      "name": "createAlarm",
      "outputs": [
        {
          "name": "",
          "type": "bool"
        }
      ],
      "payable": false,
      "stateMutability": "nonpayable",
      "type": "function"
    },
    {
      "constant": false,
      "inputs": [
        {
          "name": "_addr",
          "type": "address"
        }
      ],
      "name": "removeAlarm",
      "outputs": [
        {
          "name": "",
          "type": "bool"
        }
      ],
      "payable": false,
      "stateMutability": "nonpayable",
      "type": "function"
    },
    {
      "constant": true,
      "inputs": [],
      "name": "getAlarmCount",
      "outputs": [
        {
          "name": "",
          "type": "uint256"
        }
      ],
      "payable": false,
      "stateMutability": "view",
      "type": "function"
    },
    {
      "constant": true,
      "inputs": [
        {
          "name": "from",
          "type": "uint256"
        },
        {
          "name": "_count",
          "type": "uint256"
        }
      ],
      "name": "getAlarmList",
      "outputs": [
        {
          "components": [
            {
              "name": "contractAddr",
              "type": "address"
            },
            {
              "name": "creatorAddr",
              "type": "address"
            },
            {
              "name": "idx",
              "type": "uint256"
            },
            {
              "name": "alarmType",
              "type": "uint256"
            },
            {
              "name": "begin",
              "type": "uint256"
            },
            {
              "name": "peroid",
              "type": "uint256"
            }
          ],
          "name": "",
          "type": "tuple[]"
        }
      ],
      "payable": false,
      "stateMutability": "view",
      "type": "function"
    },
    {
      "constant": false,
      "inputs": [
        {
          "name": "_addr",
          "type": "address"
        }
      ],
      "name": "execute",
      "outputs": [],
      "payable": false,
      "stateMutability": "nonpayable",
      "type": "function"
    }
  ],
  "bytecode": "0x608060405234801561001057600080fd5b506000805433600160a060020a0319918216811780845560018054909316909117909155604051600160a060020a0390911691907f8be0079c531659141344cd1fd0a4f28419497f9722a3daafe3b4186f6b6457e0908290a3600154604051600160a060020a03909116906000907f399b55200f7f639a63d76efe3dcfa9156ce367058d6b673041b84a628885f5a7908290a3611efd806100b26000396000f3006080604052600436106100c15763ffffffff60e060020a6000350416632e1a7d4d81146100c65780634b64e492146100db5780635f539d69146100fb5780636edce96d14610131578063715018a6146101515780638da5cb5b146101665780639bdccb0714610188578063a386b372146101a8578063b311f86c146101ca578063c375c2ef146101f7578063c648a3a214610217578063e3d670d714610237578063f2fde38b14610257578063f340fa0114610277578063f851a4401461028a575b600080fd5b6100d96100d43660046118cf565b61029f565b005b3480156100e757600080fd5b506100d96100f636600461182a565b61034a565b34801561010757600080fd5b5061011b61011636600461182a565b610534565b6040516101289190611d9c565b60405180910390f35b34801561013d57600080fd5b5061011b61014c36600461186e565b61054d565b34801561015d57600080fd5b506100d9610605565b34801561017257600080fd5b5061017b61067c565b6040516101289190611d7d565b34801561019457600080fd5b5061011b6101a336600461182a565b61068c565b3480156101b457600080fd5b506101bd61089e565b6040516101289190611e9a565b3480156101d657600080fd5b506101ea6101e53660046118ed565b6108af565b6040516101289190611d8b565b34801561020357600080fd5b5061011b61021236600461182a565b6108ca565b34801561022357600080fd5b506100d961023236600461182a565b610920565b34801561024357600080fd5b506101bd61025236600461182a565b6109eb565b34801561026357600080fd5b506100d961027236600461182a565b6109fe565b6101bd61028536600461182a565b610ab1565b34801561029657600080fd5b5061017b610afd565b600054600160a060020a03163314806102c25750600154600160a060020a031633145b15156102ec5760405160e560020a62461bcd0281526004016102e390611dba565b60405180910390fd5b604051819033907f884edad9ce6fa2440d8a54cc123490eb96d2768479d49ff9c7366125a942436490600090a3604051339082156108fc029083906000818181858888f19350505050158015610346573d6000803e3d6000fd5b5050565b6000610354611674565b6000805481908190600160a060020a031633148061037c5750600154600160a060020a031633145b151561039d5760405160e560020a62461bcd0281526004016102e390611dba565b67016345785d8a00006103b760068863ffffffff610b0c16565b116103d75760405160e560020a62461bcd0281526004016102e390611e1a565b5a94506103eb60028763ffffffff610b6716565b93506104188460a0015161040c866080015142610c2d90919063ffffffff16565b9063ffffffff610c3f16565b925083606001516000148061042d5750603c83105b1561048d578360000151600160a060020a031663514e22776040518163ffffffff1660e060020a028152600401600060405180830381600087803b15801561047457600080fd5b505af1158015610488573d6000803e3d6000fd5b505050505b606084015115156104ae5783516104ac9060029063ffffffff610c7616565b505b5a91506104d13a6104c5878563ffffffff610c2d16565b9063ffffffff610da116565b9050806104e560068863ffffffff610b0c16565b604051600160a060020a038916907f0d4687f69abafcbd8cc1b90346f8eef611fc59139163a462f684d869f390586e90600090a461052b6006878363ffffffff610dd716565b50505050505050565b600061054760048363ffffffff610f4e16565b92915050565b600061056060043363ffffffff610fc316565b15156105815760405160e560020a62461bcd0281526004016102e390611e8a565b6105966002863387878763ffffffff61102016565b15156105b75760405160e560020a62461bcd0281526004016102e390611e4a565b828486600160a060020a03167fda2c27be4582fbfb8bdccd93bfcc7f0eaabdf9fb8545e9405e5655293c401664856040516105f29190611e9a565b60405180910390a4506001949350505050565b600054600160a060020a031633146106325760405160e560020a62461bcd0281526004016102e390611dda565b60008054604051600160a060020a03909116907f8be0079c531659141344cd1fd0a4f28419497f9722a3daafe3b4186f6b6457e0908390a360008054600160a060020a0319169055565b600054600160a060020a03165b90565b6000610696611674565b6106a760043363ffffffff610fc316565b80610738575030600160a060020a031663f851a4406040518163ffffffff1660e060020a028152600401602060405180830381600087803b1580156106eb57600080fd5b505af11580156106ff573d6000803e3d6000fd5b505050506040513d601f19601f820116820180604052506107239190810190611850565b600160a060020a031633600160a060020a0316145b15156107595760405160e560020a62461bcd0281526004016102e390611e8a565b61076a60028463ffffffff610b6716565b6020810151909150600160a060020a031633148061080e575030600160a060020a031663f851a4406040518163ffffffff1660e060020a028152600401602060405180830381600087803b1580156107c157600080fd5b505af11580156107d5573d6000803e3d6000fd5b505050506040513d601f19601f820116820180604052506107f99190810190611850565b600160a060020a031633600160a060020a0316145b151561082f5760405160e560020a62461bcd0281526004016102e390611e3a565b61084060028463ffffffff610c7616565b15156108615760405160e560020a62461bcd0281526004016102e390611e5a565b604051600160a060020a038416907fb87ec37b24560364a9c069bdc5b70657b8a36c552bb05329da623f0c06d1e7f590600090a250600192915050565b60006108aa60026110fe565b905090565b60606108c36002848463ffffffff61110516565b9392505050565b60008054600160a060020a03163314806108ee5750600154600160a060020a031633145b151561090f5760405160e560020a62461bcd0281526004016102e390611dba565b61054760048363ffffffff61123516565b600054600160a060020a03163314806109435750600154600160a060020a031633145b15156109645760405160e560020a62461bcd0281526004016102e390611dba565b600160a060020a038116151561098f5760405160e560020a62461bcd0281526004016102e390611dca565b600154604051600160a060020a038084169216907f399b55200f7f639a63d76efe3dcfa9156ce367058d6b673041b84a628885f5a790600090a360018054600160a060020a031916600160a060020a0392909216919091179055565b600061054760068363ffffffff610b0c16565b600054600160a060020a03163314610a2b5760405160e560020a62461bcd0281526004016102e390611dda565b600160a060020a0381161515610a565760405160e560020a62461bcd0281526004016102e390611dfa565b60008054604051600160a060020a03808516939216917f8be0079c531659141344cd1fd0a4f28419497f9722a3daafe3b4186f6b6457e091a360008054600160a060020a031916600160a060020a0392909216919091179055565b6040516000903490600160a060020a0384169033907f5548c837ab068cf56a2c2479df0882a4922fd203edb7517321831d95078c5f62908590a46105476006833463ffffffff61130f16565b600154600160a060020a031690565b6000610b1883836113de565b610b235760006108c3565b600160a060020a0382166000908152602084905260409020546001840180549091908110610b4d57fe5b906000526020600020906003020160020154905092915050565b610b6f611674565b610b798383611440565b1515610b9a5760405160e560020a62461bcd0281526004016102e390611daa565b600160a060020a0382166000908152602084905260409020546001840180549091908110610bc457fe5b60009182526020918290206040805160c08101825260069093029091018054600160a060020a03908116845260018201541693830193909352600283015490820152600382015460608201526004820154608082015260059091015460a0820152905092915050565b600082821115610c3957fe5b50900390565b6000811515610c635760405160e560020a62461bcd0281526004016102e390611e7a565b8183811515610c6e57fe5b069392505050565b6000806000610c858585611440565b1515610c945760009250610d99565b600160a060020a0384166000908152602086905260409020546001808701805492945091610cc79163ffffffff610c2d16565b81548110610cd157fe5b90600052602060002090600602019050808560010183815481101515610cf357fe5b6000918252602080832084546006909302018054600160a060020a0319908116600160a060020a039485161782556001808701548184018054909316908616179091556002808701549083015560038087015490830155600480870154908301556005958601549590910194909455845490911682528790526040902083905585810154610d869163ffffffff610c2d16565b610d9360018701826116bd565b50600192505b505092915050565b600080831515610db45760009150610dd0565b50828202828482811515610dc457fe5b0414610dcc57fe5b8091505b5092915050565b6000610de384846113de565b1515610e045760405160e560020a62461bcd0281526004016102e390611e0a565b600160a060020a038316600090815260208590526040902054600185018054610e52928592918110610e3257fe5b906000526020600020906003020160020154610c2d90919063ffffffff16565b600160a060020a0384166000908152602086905260409020546001860180549091908110610e7c57fe5b6000918252602080832060026003909302019190910192909255600160a060020a03851681529085905260409020546001850180549091908110610ebc57fe5b90600052602060002090600302016002015460001415610f0957610ee084846114a2565b1515610f015760405160e560020a62461bcd0281526004016102e390611dea565b5060006108c3565b600160a060020a0383166000908152602085905260409020546001850180549091908110610f3357fe5b90600052602060002090600302016002015490509392505050565b6000610f5a8383610fc3565b15610f6757506000610547565b6001838101805480830180835560009283526020909220018054600160a060020a031916600160a060020a038616179055610fa191610c2d565b600160a060020a03831660009081526020859052604090205550600192915050565b60018201546000901515610fd957506000610547565b600160a060020a038216600081815260208590526040902054600185018054909190811061100357fe5b600091825260209091200154600160a060020a0316149392505050565b600061102a611674565b6110348888611440565b1561104257600091506110f3565b50506040805160c081018252600160a060020a0380881680835287821660208085019182526001808d018054878901818152606089018d815260808a018d815260a08b018d8152848701865560009586528786208c516006909602018054958c16600160a060020a03199687161781559851898801805491909c169516949094179099559051600287018190559051600387015596516004860155516005909401939093559282528b905293909320555b509695505050505050565b6001015490565b60606000818180851161112d5760405160e560020a62461bcd0281526004016102e390611e2a565b8460405190808252806020026020018201604052801561116757816020015b611154611674565b81526020019060019003908161114c5790505b5091508590505b600187015481101561122b57848314156111875761122b565b6001870180548290811061119757fe5b60009182526020918290206040805160c08101825260069093029091018054600160a060020a03908116845260018201541693830193909352600283015490820152600382015460608201526004820154608082015260059091015460a0820152825183908590811061120657fe5b6020908102909101015261122183600163ffffffff6115df16565b925060010161116e565b5095945050505050565b60008060006112448585610fc3565b15156112535760009250610d99565b600160a060020a03841660009081526020869052604090205460018087018054929450916112869163ffffffff610c2d16565b8154811061129057fe5b600091825260209091200154600186018054600160a060020a0390921692508291849081106112bb57fe5b60009182526020808320919091018054600160a060020a031916600160a060020a039485161790559183168152908690526040902082905560018581015461130291610c2d565b610d9360018701826116ee565b600061131b84846113de565b156113b257600160a060020a03831660009081526020859052604090205460018501805461136e92859291811061134e57fe5b9060005260206000209060030201600201546115df90919063ffffffff16565b600160a060020a038416600090815260208690526040902054600186018054909190811061139857fe5b906000526020600020906003020160020181905550610f09565b6113bd8484846115ee565b1515610f095760405160e560020a62461bcd0281526004016102e390611e6a565b600182015460009015156113f457506000610547565b600160a060020a038216600081815260208590526040902054600185018054909190811061141e57fe5b6000918252602090912060039091020154600160a060020a0316149392505050565b6001820154600090151561145657506000610547565b600160a060020a038216600081815260208590526040902054600185018054909190811061148057fe5b6000918252602090912060069091020154600160a060020a0316149392505050565b60008060006114b185856113de565b15156114c05760009250610d99565b600160a060020a03841660009081526020869052604081205460018701805490919081106114ea57fe5b906000526020600020906003020160020154111561150b5760009250610d99565b600160a060020a038416600090815260208690526040902054600180870180549294509161153e9163ffffffff610c2d16565b8154811061154857fe5b9060005260206000209060030201905080856001018381548110151561156a57fe5b6000918252602080832084546003909302018054600160a060020a031916600160a060020a039384161781556001808601548183015560029586015495909101949094558454909116825287905260409020839055858101546115d29163ffffffff610c2d16565b610d936001870182611712565b600082820183811015610dcc57fe5b60006115f861173e565b505060408051606081018252600160a060020a0393841680825260018681018054602080860182815286880198895282850184556000938452818420965160039093029096018054600160a060020a03191692909916919091178855935187830181905595516002909701969096559085529490529091205590565b60c0604051908101604052806000600160a060020a031681526020016000600160a060020a03168152602001600081526020016000815260200160008152602001600081525090565b8154818355818111156116e9576006028160060283600052602060002091820191016116e99190611769565b505050565b8154818355818111156116e9576000838152602090206116e99181019083016117ba565b8154818355818111156116e9576003028160030283600052602060002091820191016116e991906117d4565b6060604051908101604052806000600160a060020a0316815260200160008152602001600081525090565b61068991905b808211156117b6578054600160a060020a0319908116825560018201805490911690556000600282018190556003820181905560048201819055600582015560060161176f565b5090565b61068991905b808211156117b657600081556001016117c0565b61068991905b808211156117b6578054600160a060020a031916815560006001820181905560028201556003016117da565b60006108c38235611eb2565b60006108c38251611eb2565b60006108c38235610689565b60006020828403121561183c57600080fd5b60006118488484611806565b949350505050565b60006020828403121561186257600080fd5b60006118488484611812565b6000806000806080858703121561188457600080fd5b60006118908787611806565b94505060206118a18782880161181e565b93505060406118b28782880161181e565b92505060606118c38782880161181e565b91505092959194509250565b6000602082840312156118e157600080fd5b6000611848848461181e565b6000806040838503121561190057600080fd5b600061190c858561181e565b925050602061191d8582860161181e565b9150509250929050565b61193081611eb2565b82525050565b600061194182611eae565b80845260208401935061195383611ea8565b60005b8281101561198357611969868351611cfe565b61197282611ea8565b60c096909601959150600101611956565b5093949350505050565b61193081611ebe565b601081527f616c61726d206d75737420657869737400000000000000000000000000000000602082015260400190565b602b81527f6f6e6c79206f776e6572206f722061646d696e6973747261746f722063616e2060208201527f6d6f646966792074686973000000000000000000000000000000000000000000604082015260600190565b602e81527f43616e206e6f74207472616e736665722061646d696e6973747261746f72207460208201527f6f207a65726f2061646472657373000000000000000000000000000000000000604082015260600190565b601a81527f6f6e6c79206f776e65722063616e206d6f646966792074686973000000000000602082015260400190565b601081527f72656d6f76652064617461206661696c00000000000000000000000000000000602082015260400190565b602681527f43616e206e6f74207472616e73666572206f776e657220746f207a65726f206160208201527f6464726573730000000000000000000000000000000000000000000000000000604082015260600190565b601c81527f63616e206e6f7420737562206e6f20657869737420656c656d656e7400000000602082015260400190565b601481527f6d757374206861766520656e6f75676820676173000000000000000000000000602082015260400190565b60208082527f72657475726e206e756d626572206d75737420626967676572207468616e20309082015260400190565b602c81527f72656d6f766520616c61726d2063616c6c6572206d757374206265206372656160208201527f746f72206f722061646d696e0000000000000000000000000000000000000000604082015260600190565b601781527f696e7365727420616c61726d207375636365737366756c000000000000000000602082015260400190565b601781527f72656d6f766520616c61726d207375636365737366756c000000000000000000602082015260400190565b601081527f696e736572742064617461206661696c00000000000000000000000000000000602082015260400190565b601081527f63616e206e6f74206d6f64207a65726f00000000000000000000000000000000602082015260400190565b601881527f6e6f742061636365707420636f6e74726163742063616c6c0000000000000000602082015260400190565b805160c0830190611d0f8482611927565b506020820151611d226020850182611927565b506040820151611d356040850182611d74565b506060820151611d486060850182611d74565b506080820151611d5b6080850182611d74565b5060a0820151611d6e60a0850182611d74565b50505050565b61193081610689565b602081016105478284611927565b602080825281016108c38184611936565b60208101610547828461198d565b6020808252810161054781611996565b60208082528101610547816119c6565b6020808252810161054781611a1c565b6020808252810161054781611a72565b6020808252810161054781611aa2565b6020808252810161054781611ad2565b6020808252810161054781611b28565b6020808252810161054781611b58565b6020808252810161054781611b88565b6020808252810161054781611bb8565b6020808252810161054781611c0e565b6020808252810161054781611c3e565b6020808252810161054781611c6e565b6020808252810161054781611c9e565b6020808252810161054781611cce565b602081016105478284611d74565b60200190565b5190565b600160a060020a031690565b1515905600a265627a7a72305820321d5ea7ab164f0bfbc17213260f02c588c0ec4fcda39405448ca4e982bbc4e16c6578706572696d656e74616cf50037",
  "source": "pragma solidity 0.4.24;\npragma experimental ABIEncoderV2;\n\nimport \"jcc-solidity-utils/contracts/math/SafeMath.sol\";\nimport \"jcc-solidity-utils/contracts/owner/Administrative.sol\";\nimport \"jcc-solidity-utils/contracts/utils/AddressUtils.sol\";\nimport \"jcc-solidity-utils/contracts/list/AlarmList.sol\";\nimport \"jcc-solidity-utils/contracts/list/AddressList.sol\";\nimport \"jcc-solidity-utils/contracts/list/BalanceList.sol\";\nimport \"jcc-solidity-utils/contracts/interface/IJccMoacAlarm.sol\";\nimport \"jcc-solidity-utils/contracts/interface/IJccMoacAlarmCallback.sol\";\n\n/**\n\n1. \n2. interface\n */\ncontract JccMoacAlarm is Administrative, IJccMoacAlarm {\n  using SafeMath for uint256;\n  using AddressUtils for address;\n  using AlarmList for AlarmList.alarmMap;\n  using AddressList for AddressList.addressMap;\n  using BalanceList for BalanceList.balanceMap;\n\n  AlarmList.alarmMap _alarms;\n  // \n  AddressList.addressMap _acceptAddress;\n\n  // \n  BalanceList.balanceMap _balances;\n\n  constructor() Administrative() public {\n  }\n\n  event Deposit(address indexed _from, address indexed _contractAddr, uint256 indexed _amount);\n  // \n  function deposit(address _addr) public payable returns (uint256) {\n    emit Deposit(msg.sender, _addr, msg.value);\n    return _balances.add(_addr, msg.value);\n  }\n\n  event Withdraw(address indexed _to, uint256 indexed _amount);\n  // \n  function withdraw(uint256 _amount) public payable onlyPrivileged {\n    emit Withdraw(msg.sender, _amount);\n    msg.sender.transfer(_amount);\n  }\n\n  // \n  function balance(address _addr) public view returns (uint256) {\n    return _balances.balance(_addr);\n  }\n\n  // \n  function addContract(address _addr) public returns (bool) {\n    return _acceptAddress.insert(_addr);\n  }\n\n  // \n  function removeContract(address _addr) public onlyPrivileged returns (bool) {\n    return _acceptAddress.remove(_addr);\n  }\n\n  function createAlarm(address _addr, uint256 _type, uint256 _begin, uint256 _peroid) public returns (bool) {\n    require(_acceptAddress.exist(msg.sender), \"not accept contract call\");\n    require(_alarms.insert(_addr, msg.sender, _type, _begin, _peroid), \"insert alarm successful\");\n\n    emit CreateAlarm(_addr, _type, _begin, _peroid);\n\n    return true;\n  }\n\n  function removeAlarm(address _addr) public returns (bool) {\n    // \n    require(_acceptAddress.exist(msg.sender) || msg.sender == this.admin(), \"not accept contract call\");\n    AlarmList.element memory alarm = _alarms.getByAddr(_addr);\n    require(alarm.creatorAddr == msg.sender || msg.sender == this.admin(), \"remove alarm caller must be creator or admin\");\n\n    require(_alarms.remove(_addr), \"remove alarm successful\");\n\n    emit RemoveAlarm(_addr);\n\n    return true;\n  }\n\n  function getAlarmCount() public view returns (uint256) {\n    return _alarms.count();\n  }\n\n  function getAlarmList(uint256 from, uint256 _count) public view returns (AlarmList.element[] memory) {\n    return _alarms.getList(from, _count);\n  }\n\n  event Balance(address indexed _contractAddr, uint256 indexed _origin, uint256 indexed _cost);\n  function execute(address _addr) public onlyPrivileged {\n    //  0.1MOAC\n    require((_balances.balance(_addr) > 100000000000000000), \"must have enough gas\");\n\n    uint256 _gasBefore = gasleft();\n    // callback\n    AlarmList.element memory e = _alarms.getByAddr(_addr);\n\n    uint256 gap = block.timestamp.sub(e.begin).mod(e.peroid);\n\n    // \n    if (e.alarmType == 0 || gap < 60 ) {\n      // NEEDFIX:revertgas\n      IJccMoacAlarmCallback(e.contractAddr).jccMoacAlarmCallback();\n    }\n\n    // \n    if (e.alarmType == 0) {\n      _alarms.remove(e.contractAddr);\n    }\n\n    uint256 _gasAfter = gasleft();\n    uint256 _cost = (_gasBefore.sub(_gasAfter)).mul(tx.gasprice);\n    emit Balance(_addr, _balances.balance(_addr), _cost);\n    _balances.sub(_addr, _cost);\n    // \n    // \n  }\n}",
  "sourcePath": "/Users/chtian/Documents/01_work/01_develope/jcc/jcc_moac_alarm/contract/contracts/JccMoacAlarm.sol",
  "compiler": {
    "name": "solc",
    "version": "0.4.24+commit.e67f0147.Emscripten.clang"
  },
  "schemaVersion": "3.0.16",
  "updatedAt": "2019-10-31T05:12:12.562Z",
  "devdoc": {
    "methods": {
      "renounceOwnership()": {
        "details": ""
      }
    }
  },
  "userdoc": {
    "methods": {}
  }
}