{
  "contractName": "JccMoacAlarm",
  "abi": [
    {
      "constant": false,
      "inputs": [],
      "name": "renounceOwnership",
      "outputs": [],
      "payable": false,
      "stateMutability": "nonpayable",
      "type": "function"
    },
    {
      "constant": true,
      "inputs": [],
      "name": "owner",
      "outputs": [
        {
          "name": "",
          "type": "address"
        }
      ],
      "payable": false,
      "stateMutability": "view",
      "type": "function"
    },
    {
      "constant": false,
      "inputs": [
        {
          "name": "newAdmin",
          "type": "address"
        }
      ],
      "name": "transferAdministrator",
      "outputs": [],
      "payable": false,
      "stateMutability": "nonpayable",
      "type": "function"
    },
    {
      "constant": false,
      "inputs": [
        {
          "name": "newOwner",
          "type": "address"
        }
      ],
      "name": "transferOwnership",
      "outputs": [],
      "payable": false,
      "stateMutability": "nonpayable",
      "type": "function"
    },
    {
      "constant": true,
      "inputs": [],
      "name": "admin",
      "outputs": [
        {
          "name": "",
          "type": "address"
        }
      ],
      "payable": false,
      "stateMutability": "view",
      "type": "function"
    },
    {
      "inputs": [],
      "payable": false,
      "stateMutability": "nonpayable",
      "type": "constructor"
    },
    {
      "anonymous": false,
      "inputs": [
        {
          "indexed": true,
          "name": "_from",
          "type": "address"
        },
        {
          "indexed": true,
          "name": "_contractAddr",
          "type": "address"
        },
        {
          "indexed": true,
          "name": "_amount",
          "type": "uint256"
        }
      ],
      "name": "Deposit",
      "type": "event"
    },
    {
      "anonymous": false,
      "inputs": [
        {
          "indexed": true,
          "name": "_to",
          "type": "address"
        },
        {
          "indexed": true,
          "name": "_amount",
          "type": "uint256"
        }
      ],
      "name": "Withdraw",
      "type": "event"
    },
    {
      "anonymous": false,
      "inputs": [
        {
          "indexed": true,
          "name": "_contractAddr",
          "type": "address"
        },
        {
          "indexed": true,
          "name": "_origin",
          "type": "uint256"
        },
        {
          "indexed": true,
          "name": "_cost",
          "type": "uint256"
        }
      ],
      "name": "Balance",
      "type": "event"
    },
    {
      "anonymous": false,
      "inputs": [
        {
          "indexed": true,
          "name": "contractAddr",
          "type": "address"
        },
        {
          "indexed": true,
          "name": "_type",
          "type": "uint256"
        },
        {
          "indexed": true,
          "name": "_begin",
          "type": "uint256"
        },
        {
          "indexed": false,
          "name": "_peroid",
          "type": "uint256"
        }
      ],
      "name": "CreateAlarm",
      "type": "event"
    },
    {
      "anonymous": false,
      "inputs": [
        {
          "indexed": true,
          "name": "contractAddr",
          "type": "address"
        }
      ],
      "name": "RemoveAlarm",
      "type": "event"
    },
    {
      "anonymous": false,
      "inputs": [
        {
          "indexed": true,
          "name": "contractAddr",
          "type": "address"
        },
        {
          "indexed": true,
          "name": "time",
          "type": "uint256"
        }
      ],
      "name": "Alarm",
      "type": "event"
    },
    {
      "anonymous": false,
      "inputs": [
        {
          "indexed": true,
          "name": "previousOwner",
          "type": "address"
        },
        {
          "indexed": true,
          "name": "newOwner",
          "type": "address"
        }
      ],
      "name": "OwnershipTransferred",
      "type": "event"
    },
    {
      "anonymous": false,
      "inputs": [
        {
          "indexed": true,
          "name": "previousAdmin",
          "type": "address"
        },
        {
          "indexed": true,
          "name": "newAdmin",
          "type": "address"
        }
      ],
      "name": "AdministratorTransferred",
      "type": "event"
    },
    {
      "constant": false,
      "inputs": [
        {
          "name": "_addr",
          "type": "address"
        }
      ],
      "name": "deposit",
      "outputs": [
        {
          "name": "",
          "type": "uint256"
        }
      ],
      "payable": true,
      "stateMutability": "payable",
      "type": "function"
    },
    {
      "constant": false,
      "inputs": [
        {
          "name": "_amount",
          "type": "uint256"
        }
      ],
      "name": "withdraw",
      "outputs": [],
      "payable": true,
      "stateMutability": "payable",
      "type": "function"
    },
    {
      "constant": true,
      "inputs": [
        {
          "name": "_addr",
          "type": "address"
        }
      ],
      "name": "balance",
      "outputs": [
        {
          "name": "",
          "type": "uint256"
        }
      ],
      "payable": false,
      "stateMutability": "view",
      "type": "function"
    },
    {
      "constant": false,
      "inputs": [
        {
          "name": "_addr",
          "type": "address"
        }
      ],
      "name": "addClient",
      "outputs": [
        {
          "name": "",
          "type": "bool"
        }
      ],
      "payable": false,
      "stateMutability": "nonpayable",
      "type": "function"
    },
    {
      "constant": false,
      "inputs": [
        {
          "name": "_addr",
          "type": "address"
        }
      ],
      "name": "removeClient",
      "outputs": [
        {
          "name": "",
          "type": "bool"
        }
      ],
      "payable": false,
      "stateMutability": "nonpayable",
      "type": "function"
    },
    {
      "constant": true,
      "inputs": [],
      "name": "getClientCount",
      "outputs": [
        {
          "name": "",
          "type": "uint256"
        }
      ],
      "payable": false,
      "stateMutability": "view",
      "type": "function"
    },
    {
      "constant": true,
      "inputs": [
        {
          "name": "from",
          "type": "uint256"
        },
        {
          "name": "_count",
          "type": "uint256"
        }
      ],
      "name": "getClientList",
      "outputs": [
        {
          "name": "",
          "type": "address[]"
        }
      ],
      "payable": false,
      "stateMutability": "view",
      "type": "function"
    },
    {
      "constant": false,
      "inputs": [
        {
          "name": "_addr",
          "type": "address"
        },
        {
          "name": "_type",
          "type": "uint256"
        },
        {
          "name": "_begin",
          "type": "uint256"
        },
        {
          "name": "_peroid",
          "type": "uint256"
        }
      ],
      "name": "createAlarm",
      "outputs": [
        {
          "name": "",
          "type": "bool"
        }
      ],
      "payable": false,
      "stateMutability": "nonpayable",
      "type": "function"
    },
    {
      "constant": false,
      "inputs": [
        {
          "name": "_addr",
          "type": "address"
        }
      ],
      "name": "removeAlarm",
      "outputs": [
        {
          "name": "",
          "type": "bool"
        }
      ],
      "payable": false,
      "stateMutability": "nonpayable",
      "type": "function"
    },
    {
      "constant": true,
      "inputs": [],
      "name": "getAlarmCount",
      "outputs": [
        {
          "name": "",
          "type": "uint256"
        }
      ],
      "payable": false,
      "stateMutability": "view",
      "type": "function"
    },
    {
      "constant": true,
      "inputs": [
        {
          "name": "from",
          "type": "uint256"
        },
        {
          "name": "_count",
          "type": "uint256"
        }
      ],
      "name": "getAlarmList",
      "outputs": [
        {
          "components": [
            {
              "name": "contractAddr",
              "type": "address"
            },
            {
              "name": "creatorAddr",
              "type": "address"
            },
            {
              "name": "idx",
              "type": "uint256"
            },
            {
              "name": "alarmType",
              "type": "uint256"
            },
            {
              "name": "begin",
              "type": "uint256"
            },
            {
              "name": "peroid",
              "type": "uint256"
            }
          ],
          "name": "",
          "type": "tuple[]"
        }
      ],
      "payable": false,
      "stateMutability": "view",
      "type": "function"
    },
    {
      "constant": false,
      "inputs": [
        {
          "name": "_addr",
          "type": "address"
        }
      ],
      "name": "execute",
      "outputs": [],
      "payable": false,
      "stateMutability": "nonpayable",
      "type": "function"
    }
  ],
  "bytecode": "0x608060405234801561001057600080fd5b506000805433600160a060020a0319918216811780845560018054909316909117909155604051600160a060020a0390911691907f8be0079c531659141344cd1fd0a4f28419497f9722a3daafe3b4186f6b6457e0908290a3600154604051600160a060020a03909116906000907f399b55200f7f639a63d76efe3dcfa9156ce367058d6b673041b84a628885f5a7908290a36120ad806100b26000396000f3006080604052600436106100d75763ffffffff60e060020a6000350416632e1a7d4d81146100dc57806343928cfd146100f15780634b64e492146101275780635a81018a146101475780636edce96d14610169578063715018a6146101895780638da5cb5b1461019e5780639089f616146101c05780639bdccb07146101e0578063a386b37214610200578063b311f86c14610215578063c648a3a214610242578063e3d670d714610262578063f2fde38b14610282578063f340fa01146102a2578063f49ac09c146102b5578063f851a440146102e2575b600080fd5b6100ef6100ea366004611a21565b6102f7565b005b3480156100fd57600080fd5b5061011161010c36600461197c565b6103a2565b60405161011e9190611f4c565b60405180910390f35b34801561013357600080fd5b506100ef61014236600461197c565b6103bb565b34801561015357600080fd5b5061015c6105a5565b60405161011e919061204a565b34801561017557600080fd5b506101116101843660046119c0565b6105b7565b34801561019557600080fd5b506100ef61066f565b3480156101aa57600080fd5b506101b36106e6565b60405161011e9190611f1c565b3480156101cc57600080fd5b506101116101db36600461197c565b6106f5565b3480156101ec57600080fd5b506101116101fb36600461197c565b61074b565b34801561020c57600080fd5b5061015c61095d565b34801561022157600080fd5b50610235610230366004611a3f565b610969565b60405161011e9190611f3b565b34801561024e57600080fd5b506100ef61025d36600461197c565b610984565b34801561026e57600080fd5b5061015c61027d36600461197c565b610a4f565b34801561028e57600080fd5b506100ef61029d36600461197c565b610a62565b61015c6102b036600461197c565b610b15565b3480156102c157600080fd5b506102d56102d0366004611a3f565b610b61565b60405161011e9190611f2a565b3480156102ee57600080fd5b506101b3610b75565b600054600160a060020a031633148061031a5750600154600160a060020a031633145b15156103445760405160e560020a62461bcd02815260040161033b90611f6a565b60405180910390fd5b604051819033907f884edad9ce6fa2440d8a54cc123490eb96d2768479d49ff9c7366125a942436490600090a3604051339082156108fc029083906000818181858888f1935050505015801561039e573d6000803e3d6000fd5b5050565b60006103b560048363ffffffff610b8416565b92915050565b60006103c56117c6565b6000805481908190600160a060020a03163314806103ed5750600154600160a060020a031633145b151561040e5760405160e560020a62461bcd02815260040161033b90611f6a565b67016345785d8a000061042860068863ffffffff610bf916565b116104485760405160e560020a62461bcd02815260040161033b90611fca565b5a945061045c60028763ffffffff610c5416565b93506104898460a0015161047d866080015142610d1a90919063ffffffff16565b9063ffffffff610d2c16565b925083606001516000148061049e5750607883105b156104fe578360000151600160a060020a031663514e22776040518163ffffffff1660e060020a028152600401600060405180830381600087803b1580156104e557600080fd5b505af11580156104f9573d6000803e3d6000fd5b505050505b6060840151151561051f57835161051d9060029063ffffffff610d6316565b505b5a91506105423a610536878563ffffffff610d1a16565b9063ffffffff610e8e16565b90508061055660068863ffffffff610bf916565b604051600160a060020a038916907f0d4687f69abafcbd8cc1b90346f8eef611fc59139163a462f684d869f390586e90600090a461059c6006878363ffffffff610ec416565b50505050505050565b60006105b1600461103b565b90505b90565b60006105ca60043363ffffffff61104216565b15156105eb5760405160e560020a62461bcd02815260040161033b9061203a565b6106006002863387878763ffffffff61109f16565b15156106215760405160e560020a62461bcd02815260040161033b90611ffa565b828486600160a060020a03167fda2c27be4582fbfb8bdccd93bfcc7f0eaabdf9fb8545e9405e5655293c4016648560405161065c919061204a565b60405180910390a4506001949350505050565b600054600160a060020a0316331461069c5760405160e560020a62461bcd02815260040161033b90611f8a565b60008054604051600160a060020a03909116907f8be0079c531659141344cd1fd0a4f28419497f9722a3daafe3b4186f6b6457e0908390a360008054600160a060020a0319169055565b600054600160a060020a031690565b60008054600160a060020a03163314806107195750600154600160a060020a031633145b151561073a5760405160e560020a62461bcd02815260040161033b90611f6a565b6103b560048363ffffffff61117d16565b60006107556117c6565b61076660043363ffffffff61104216565b806107f7575030600160a060020a031663f851a4406040518163ffffffff1660e060020a028152600401602060405180830381600087803b1580156107aa57600080fd5b505af11580156107be573d6000803e3d6000fd5b505050506040513d601f19601f820116820180604052506107e291908101906119a2565b600160a060020a031633600160a060020a0316145b15156108185760405160e560020a62461bcd02815260040161033b9061203a565b61082960028463ffffffff610c5416565b6020810151909150600160a060020a03163314806108cd575030600160a060020a031663f851a4406040518163ffffffff1660e060020a028152600401602060405180830381600087803b15801561088057600080fd5b505af1158015610894573d6000803e3d6000fd5b505050506040513d601f19601f820116820180604052506108b891908101906119a2565b600160a060020a031633600160a060020a0316145b15156108ee5760405160e560020a62461bcd02815260040161033b90611fea565b6108ff60028463ffffffff610d6316565b15156109205760405160e560020a62461bcd02815260040161033b9061200a565b604051600160a060020a038416907fb87ec37b24560364a9c069bdc5b70657b8a36c552bb05329da623f0c06d1e7f590600090a250600192915050565b60006105b1600261103b565b606061097d6002848463ffffffff61125716565b9392505050565b600054600160a060020a03163314806109a75750600154600160a060020a031633145b15156109c85760405160e560020a62461bcd02815260040161033b90611f6a565b600160a060020a03811615156109f35760405160e560020a62461bcd02815260040161033b90611f7a565b600154604051600160a060020a038084169216907f399b55200f7f639a63d76efe3dcfa9156ce367058d6b673041b84a628885f5a790600090a360018054600160a060020a031916600160a060020a0392909216919091179055565b60006103b560068363ffffffff610bf916565b600054600160a060020a03163314610a8f5760405160e560020a62461bcd02815260040161033b90611f8a565b600160a060020a0381161515610aba5760405160e560020a62461bcd02815260040161033b90611faa565b60008054604051600160a060020a03808516939216917f8be0079c531659141344cd1fd0a4f28419497f9722a3daafe3b4186f6b6457e091a360008054600160a060020a031916600160a060020a0392909216919091179055565b6040516000903490600160a060020a0384169033907f5548c837ab068cf56a2c2479df0882a4922fd203edb7517321831d95078c5f62908590a46103b56006833463ffffffff61138716565b606061097d6004848463ffffffff61145616565b600154600160a060020a031690565b6000610b908383611042565b15610b9d575060006103b5565b6001838101805480830180835560009283526020909220018054600160a060020a031916600160a060020a038616179055610bd791610d1a565b600160a060020a03831660009081526020859052604090205550600192915050565b6000610c058383611530565b610c1057600061097d565b600160a060020a0382166000908152602084905260409020546001840180549091908110610c3a57fe5b906000526020600020906003020160020154905092915050565b610c5c6117c6565b610c668383611592565b1515610c875760405160e560020a62461bcd02815260040161033b90611f5a565b600160a060020a0382166000908152602084905260409020546001840180549091908110610cb157fe5b60009182526020918290206040805160c08101825260069093029091018054600160a060020a03908116845260018201541693830193909352600283015490820152600382015460608201526004820154608082015260059091015460a0820152905092915050565b600082821115610d2657fe5b50900390565b6000811515610d505760405160e560020a62461bcd02815260040161033b9061202a565b8183811515610d5b57fe5b069392505050565b6000806000610d728585611592565b1515610d815760009250610e86565b600160a060020a0384166000908152602086905260409020546001808701805492945091610db49163ffffffff610d1a16565b81548110610dbe57fe5b90600052602060002090600602019050808560010183815481101515610de057fe5b6000918252602080832084546006909302018054600160a060020a0319908116600160a060020a039485161782556001808701548184018054909316908616179091556002808701549083015560038087015490830155600480870154908301556005958601549590910194909455845490911682528790526040902083905585810154610e739163ffffffff610d1a16565b610e80600187018261180f565b50600192505b505092915050565b600080831515610ea15760009150610ebd565b50828202828482811515610eb157fe5b0414610eb957fe5b8091505b5092915050565b6000610ed08484611530565b1515610ef15760405160e560020a62461bcd02815260040161033b90611fba565b600160a060020a038316600090815260208590526040902054600185018054610f3f928592918110610f1f57fe5b906000526020600020906003020160020154610d1a90919063ffffffff16565b600160a060020a0384166000908152602086905260409020546001860180549091908110610f6957fe5b6000918252602080832060026003909302019190910192909255600160a060020a03851681529085905260409020546001850180549091908110610fa957fe5b90600052602060002090600302016002015460001415610ff657610fcd84846115f4565b1515610fee5760405160e560020a62461bcd02815260040161033b90611f9a565b50600061097d565b600160a060020a038316600090815260208590526040902054600185018054909190811061102057fe5b90600052602060002090600302016002015490509392505050565b6001015490565b60018201546000901515611058575060006103b5565b600160a060020a038216600081815260208590526040902054600185018054909190811061108257fe5b600091825260209091200154600160a060020a0316149392505050565b60006110a96117c6565b6110b38888611592565b156110c15760009150611172565b50506040805160c081018252600160a060020a0380881680835287821660208085019182526001808d018054878901818152606089018d815260808a018d815260a08b018d8152848701865560009586528786208c516006909602018054958c16600160a060020a03199687161781559851898801805491909c169516949094179099559051600287018190559051600387015596516004860155516005909401939093559282528b905293909320555b509695505050505050565b600080600061118c8585611042565b151561119b5760009250610e86565b600160a060020a03841660009081526020869052604090205460018087018054929450916111ce9163ffffffff610d1a16565b815481106111d857fe5b600091825260209091200154600186018054600160a060020a03909216925082918490811061120357fe5b60009182526020808320919091018054600160a060020a031916600160a060020a039485161790559183168152908690526040902082905560018581015461124a91610d1a565b610e806001870182611840565b60606000818180851161127f5760405160e560020a62461bcd02815260040161033b90611fda565b846040519080825280602002602001820160405280156112b957816020015b6112a66117c6565b81526020019060019003908161129e5790505b5091508590505b600187015481101561137d57848314156112d95761137d565b600187018054829081106112e957fe5b60009182526020918290206040805160c08101825260069093029091018054600160a060020a03908116845260018201541693830193909352600283015490820152600382015460608201526004820154608082015260059091015460a0820152825183908590811061135857fe5b6020908102909101015261137383600163ffffffff61173116565b92506001016112c0565b5095945050505050565b60006113938484611530565b1561142a57600160a060020a0383166000908152602085905260409020546001850180546113e69285929181106113c657fe5b90600052602060002090600302016002015461173190919063ffffffff16565b600160a060020a038416600090815260208690526040902054600186018054909190811061141057fe5b906000526020600020906003020160020181905550610ff6565b611435848484611740565b1515610ff65760405160e560020a62461bcd02815260040161033b9061201a565b60606000818180851161147e5760405160e560020a62461bcd02815260040161033b90611fda565b846040519080825280602002602001820160405280156114a8578160200160208202803883390190505b5091508590505b600187015481101561137d57848314156114c85761137d565b600187018054829081106114d857fe5b6000918252602090912001548251600160a060020a03909116908390859081106114fe57fe5b600160a060020a0390921660209283029091019091015261152683600163ffffffff61173116565b92506001016114af565b60018201546000901515611546575060006103b5565b600160a060020a038216600081815260208590526040902054600185018054909190811061157057fe5b6000918252602090912060039091020154600160a060020a0316149392505050565b600182015460009015156115a8575060006103b5565b600160a060020a03821660008181526020859052604090205460018501805490919081106115d257fe5b6000918252602090912060069091020154600160a060020a0316149392505050565b60008060006116038585611530565b15156116125760009250610e86565b600160a060020a038416600090815260208690526040812054600187018054909190811061163c57fe5b906000526020600020906003020160020154111561165d5760009250610e86565b600160a060020a03841660009081526020869052604090205460018087018054929450916116909163ffffffff610d1a16565b8154811061169a57fe5b906000526020600020906003020190508085600101838154811015156116bc57fe5b6000918252602080832084546003909302018054600160a060020a031916600160a060020a039384161781556001808601548183015560029586015495909101949094558454909116825287905260409020839055858101546117249163ffffffff610d1a16565b610e806001870182611864565b600082820183811015610eb957fe5b600061174a611890565b505060408051606081018252600160a060020a0393841680825260018681018054602080860182815286880198895282850184556000938452818420965160039093029096018054600160a060020a03191692909916919091178855935187830181905595516002909701969096559085529490529091205590565b60c0604051908101604052806000600160a060020a031681526020016000600160a060020a03168152602001600081526020016000815260200160008152602001600081525090565b81548183558181111561183b5760060281600602836000526020600020918201910161183b91906118bb565b505050565b81548183558181111561183b5760008381526020902061183b91810190830161190c565b81548183558181111561183b5760030281600302836000526020600020918201910161183b9190611926565b6060604051908101604052806000600160a060020a0316815260200160008152602001600081525090565b6105b491905b80821115611908578054600160a060020a031990811682556001820180549091169055600060028201819055600382018190556004820181905560058201556006016118c1565b5090565b6105b491905b808211156119085760008155600101611912565b6105b491905b80821115611908578054600160a060020a0319168155600060018201819055600282015560030161192c565b600061097d8235612062565b600061097d8251612062565b600061097d82356105b4565b60006020828403121561198e57600080fd5b600061199a8484611958565b949350505050565b6000602082840312156119b457600080fd5b600061199a8484611964565b600080600080608085870312156119d657600080fd5b60006119e28787611958565b94505060206119f387828801611970565b9350506040611a0487828801611970565b9250506060611a1587828801611970565b91505092959194509250565b600060208284031215611a3357600080fd5b600061199a8484611970565b60008060408385031215611a5257600080fd5b6000611a5e8585611970565b9250506020611a6f85828601611970565b9150509250929050565b611a8281612062565b82525050565b6000611a938261205e565b808452602084019350611aa583612058565b60005b82811015611ad557611abb868351611a79565b611ac482612058565b602096909601959150600101611aa8565b5093949350505050565b6000611aea8261205e565b808452602084019350611afc83612058565b60005b82811015611ad557611b12868351611e9d565b611b1b82612058565b60c096909601959150600101611aff565b611a828161206e565b601081527f616c61726d206d75737420657869737400000000000000000000000000000000602082015260400190565b602b81527f6f6e6c79206f776e6572206f722061646d696e6973747261746f722063616e2060208201527f6d6f646966792074686973000000000000000000000000000000000000000000604082015260600190565b602e81527f43616e206e6f74207472616e736665722061646d696e6973747261746f72207460208201527f6f207a65726f2061646472657373000000000000000000000000000000000000604082015260600190565b601a81527f6f6e6c79206f776e65722063616e206d6f646966792074686973000000000000602082015260400190565b601081527f72656d6f76652064617461206661696c00000000000000000000000000000000602082015260400190565b602681527f43616e206e6f74207472616e73666572206f776e657220746f207a65726f206160208201527f6464726573730000000000000000000000000000000000000000000000000000604082015260600190565b601c81527f63616e206e6f7420737562206e6f20657869737420656c656d656e7400000000602082015260400190565b601481527f6d757374206861766520656e6f75676820676173000000000000000000000000602082015260400190565b60208082527f72657475726e206e756d626572206d75737420626967676572207468616e20309082015260400190565b602c81527f72656d6f766520616c61726d2063616c6c6572206d757374206265206372656160208201527f746f72206f722061646d696e0000000000000000000000000000000000000000604082015260600190565b601781527f696e7365727420616c61726d207375636365737366756c000000000000000000602082015260400190565b601781527f72656d6f766520616c61726d207375636365737366756c000000000000000000602082015260400190565b601081527f696e736572742064617461206661696c00000000000000000000000000000000602082015260400190565b601081527f63616e206e6f74206d6f64207a65726f00000000000000000000000000000000602082015260400190565b601881527f6e6f742061636365707420636f6e74726163742063616c6c0000000000000000602082015260400190565b805160c0830190611eae8482611a79565b506020820151611ec16020850182611a79565b506040820151611ed46040850182611f13565b506060820151611ee76060850182611f13565b506080820151611efa6080850182611f13565b5060a0820151611f0d60a0850182611f13565b50505050565b611a82816105b4565b602081016103b58284611a79565b6020808252810161097d8184611a88565b6020808252810161097d8184611adf565b602081016103b58284611b2c565b602080825281016103b581611b35565b602080825281016103b581611b65565b602080825281016103b581611bbb565b602080825281016103b581611c11565b602080825281016103b581611c41565b602080825281016103b581611c71565b602080825281016103b581611cc7565b602080825281016103b581611cf7565b602080825281016103b581611d27565b602080825281016103b581611d57565b602080825281016103b581611dad565b602080825281016103b581611ddd565b602080825281016103b581611e0d565b602080825281016103b581611e3d565b602080825281016103b581611e6d565b602081016103b58284611f13565b60200190565b5190565b600160a060020a031690565b1515905600a265627a7a72305820b86794de662485d59b4632d8deee0f2cc968e99e6001a7d5a6b6aa2d74ce577b6c6578706572696d656e74616cf50037",
  "source": "pragma solidity 0.4.24;\npragma experimental ABIEncoderV2;\n\nimport \"jcc-solidity-utils/contracts/math/SafeMath.sol\";\nimport \"jcc-solidity-utils/contracts/owner/Administrative.sol\";\nimport \"jcc-solidity-utils/contracts/utils/AddressUtils.sol\";\nimport \"jcc-solidity-utils/contracts/list/AlarmList.sol\";\nimport \"jcc-solidity-utils/contracts/list/AddressList.sol\";\nimport \"jcc-solidity-utils/contracts/list/BalanceList.sol\";\nimport \"jcc-solidity-utils/contracts/interface/IJccMoacAlarm.sol\";\nimport \"jcc-solidity-utils/contracts/interface/IJccMoacAlarmCallback.sol\";\n\n/**\n\n1. \n2. interface\n */\ncontract JccMoacAlarm is Administrative, IJccMoacAlarm {\n  using SafeMath for uint256;\n  using AddressUtils for address;\n  using AlarmList for AlarmList.alarmMap;\n  using AddressList for AddressList.addressMap;\n  using BalanceList for BalanceList.balanceMap;\n\n  AlarmList.alarmMap _alarms;\n  // \n  AddressList.addressMap _acceptAddress;\n\n  // \n  BalanceList.balanceMap _balances;\n\n  constructor() Administrative() public {\n  }\n\n  event Deposit(address indexed _from, address indexed _contractAddr, uint256 indexed _amount);\n\n  // \n  function deposit(address _addr) public payable returns (uint256) {\n    emit Deposit(msg.sender, _addr, msg.value);\n    return _balances.add(_addr, msg.value);\n  }\n\n  event Withdraw(address indexed _to, uint256 indexed _amount);\n\n  // \n  function withdraw(uint256 _amount) public payable onlyPrivileged {\n    emit Withdraw(msg.sender, _amount);\n    msg.sender.transfer(_amount);\n  }\n\n  // \n  function balance(address _addr) public view returns (uint256) {\n    return _balances.balance(_addr);\n  }\n\n  // \n  function addClient(address _addr) public returns (bool) {\n    return _acceptAddress.insert(_addr);\n  }\n\n  // \n  function removeClient(address _addr) public onlyPrivileged returns (bool) {\n    return _acceptAddress.remove(_addr);\n  }\n\n  // \n  function getClientCount() public view returns (uint256) {\n    return _acceptAddress.count();\n  }\n\n  function getClientList(uint256 from, uint256 _count) public view returns (address[] memory) {\n    return _acceptAddress.getList(from, _count);\n  }\n\n  function createAlarm(address _addr, uint256 _type, uint256 _begin, uint256 _peroid) public returns (bool) {\n    require(_acceptAddress.exist(msg.sender), \"not accept contract call\");\n    require(_alarms.insert(_addr, msg.sender, _type, _begin, _peroid), \"insert alarm successful\");\n\n    emit CreateAlarm(_addr, _type, _begin, _peroid);\n\n    return true;\n  }\n\n  function removeAlarm(address _addr) public returns (bool) {\n    // \n    require(_acceptAddress.exist(msg.sender) || msg.sender == this.admin(), \"not accept contract call\");\n    AlarmList.element memory alarm = _alarms.getByAddr(_addr);\n    require(alarm.creatorAddr == msg.sender || msg.sender == this.admin(), \"remove alarm caller must be creator or admin\");\n\n    require(_alarms.remove(_addr), \"remove alarm successful\");\n\n    emit RemoveAlarm(_addr);\n\n    return true;\n  }\n\n  function getAlarmCount() public view returns (uint256) {\n    return _alarms.count();\n  }\n\n  function getAlarmList(uint256 from, uint256 _count) public view returns (AlarmList.element[] memory) {\n    return _alarms.getList(from, _count);\n  }\n\n  event Balance(address indexed _contractAddr, uint256 indexed _origin, uint256 indexed _cost);\n\n  function execute(address _addr) public onlyPrivileged {\n    //  0.1MOAC\n    require((_balances.balance(_addr) > 100000000000000000), \"must have enough gas\");\n\n    uint256 _gasBefore = gasleft();\n    // callback\n    AlarmList.element memory e = _alarms.getByAddr(_addr);\n\n    uint256 gap = block.timestamp.sub(e.begin).mod(e.peroid);\n\n    // \n    if (e.alarmType == 0 || gap < 120 ) {\n      // NEEDFIX:revertgas\n      IJccMoacAlarmCallback(e.contractAddr).jccMoacAlarmCallback();\n    }\n\n    // \n    if (e.alarmType == 0) {\n      _alarms.remove(e.contractAddr);\n    }\n\n    uint256 _gasAfter = gasleft();\n    uint256 _cost = (_gasBefore.sub(_gasAfter)).mul(tx.gasprice);\n    emit Balance(_addr, _balances.balance(_addr), _cost);\n    _balances.sub(_addr, _cost);\n    // \n    // \n  }\n}",
  "sourcePath": "/Users/chtian/Documents/01_work/01_develope/jcc/jcc_moac_alarm/contract/contracts/JccMoacAlarm.sol",
  "compiler": {
    "name": "solc",
    "version": "0.4.24+commit.e67f0147.Emscripten.clang"
  },
  "schemaVersion": "3.0.16",
  "updatedAt": "2019-11-16T11:35:36.958Z",
  "devdoc": {
    "methods": {
      "renounceOwnership()": {
        "details": ""
      }
    }
  },
  "userdoc": {
    "methods": {}
  }
}